{
  "contractName": "Contacts",
  "abi": [
    {
      "anonymous": false,
      "inputs": [
        {
          "indexed": false,
          "internalType": "string",
          "name": "contactName",
          "type": "string"
        },
        {
          "indexed": false,
          "internalType": "string",
          "name": "contactPhone",
          "type": "string"
        },
        {
          "indexed": false,
          "internalType": "string",
          "name": "desc",
          "type": "string"
        }
      ],
      "name": "ContactCreated",
      "type": "event"
    },
    {
      "anonymous": false,
      "inputs": [
        {
          "indexed": false,
          "internalType": "uint256",
          "name": "id",
          "type": "uint256"
        }
      ],
      "name": "EditContact",
      "type": "event"
    },
    {
      "inputs": [
        {
          "internalType": "uint256",
          "name": "",
          "type": "uint256"
        }
      ],
      "name": "contacts",
      "outputs": [
        {
          "internalType": "uint256",
          "name": "id",
          "type": "uint256"
        },
        {
          "internalType": "string",
          "name": "contactName",
          "type": "string"
        },
        {
          "internalType": "string",
          "name": "phoneNumber",
          "type": "string"
        },
        {
          "internalType": "string",
          "name": "description",
          "type": "string"
        }
      ],
      "stateMutability": "view",
      "type": "function",
      "constant": true
    },
    {
      "inputs": [],
      "name": "totalContacts",
      "outputs": [
        {
          "internalType": "uint256",
          "name": "",
          "type": "uint256"
        }
      ],
      "stateMutability": "view",
      "type": "function",
      "constant": true
    },
    {
      "inputs": [
        {
          "internalType": "string",
          "name": "contactName",
          "type": "string"
        },
        {
          "internalType": "string",
          "name": "contactPhone",
          "type": "string"
        },
        {
          "internalType": "string",
          "name": "desc",
          "type": "string"
        }
      ],
      "name": "createContact",
      "outputs": [],
      "stateMutability": "nonpayable",
      "type": "function"
    },
    {
      "inputs": [
        {
          "internalType": "uint256",
          "name": "contactId",
          "type": "uint256"
        },
        {
          "internalType": "string",
          "name": "contactName",
          "type": "string"
        },
        {
          "internalType": "string",
          "name": "contactPhone",
          "type": "string"
        },
        {
          "internalType": "string",
          "name": "desc",
          "type": "string"
        }
      ],
      "name": "editContact",
      "outputs": [],
      "stateMutability": "nonpayable",
      "type": "function"
    },
    {
      "inputs": [
        {
          "internalType": "uint256",
          "name": "id",
          "type": "uint256"
        }
      ],
      "name": "deleteContact",
      "outputs": [],
      "stateMutability": "nonpayable",
      "type": "function"
    }
  ],
  "bytecode": "0x60806040526000805534801561001457600080fd5b50610d9b806100246000396000f3fe608060405234801561001057600080fd5b5060043610610074576000357c0100000000000000000000000000000000000000000000000000000000900480631f5c179214610079578063b72f0c5f14610095578063b9ed6fca146100b1578063d6ec6287146100cd578063e0f478cb146100eb575b600080fd5b610093600480360381019061008e919061097b565b61011e565b005b6100af60048036038101906100aa9190610a36565b6103d5565b005b6100cb60048036038101906100c69190610add565b61049b565b005b6100d561053a565b6040516100e29190610b19565b60405180910390f35b61010560048036038101906101009190610add565b610540565b6040516101159493929190610bbc565b60405180910390f35b6000600160008681526020019081526020016000206040518060800160405290816000820154815260200160018201805461015890610c45565b80601f016020809104026020016040519081016040528092919081815260200182805461018490610c45565b80156101d15780601f106101a6576101008083540402835291602001916101d1565b820191906000526020600020905b8154815290600101906020018083116101b457829003601f168201915b505050505081526020016002820180546101ea90610c45565b80601f016020809104026020016040519081016040528092919081815260200182805461021690610c45565b80156102635780601f1061023857610100808354040283529160200191610263565b820191906000526020600020905b81548152906001019060200180831161024657829003601f168201915b5050505050815260200160038201805461027c90610c45565b80601f01602080910402602001604051908101604052809291908181526020018280546102a890610c45565b80156102f55780601f106102ca576101008083540402835291602001916102f5565b820191906000526020600020905b8154815290600101906020018083116102d857829003601f168201915b50505050508152505090508381602001819052508281604001819052508181606001819052508060016000878152602001908152602001600020600082015181600001556020820151816001019080519060200190610355929190610708565b506040820151816002019080519060200190610372929190610708565b50606082015181600301908051906020019061038f929190610708565b509050507f44b4bdf3b7cb43673d31fca6d88311118b4957815b006d22d5596d74bc078e5e8484846040516103c693929190610c77565b60405180910390a15050505050565b6000808154809291906103e790610cf2565b9190505550600060016000805481526020019081526020016000209050600054816000018190555083816001019080519060200190610427929190610708565b5082816002019080519060200190610440929190610708565b5081816003019080519060200190610459929190610708565b507f44b4bdf3b7cb43673d31fca6d88311118b4957815b006d22d5596d74bc078e5e84848460405161048d93929190610c77565b60405180910390a150505050565b600160008281526020019081526020016000206000808201600090556001820160006104c7919061078e565b6002820160006104d7919061078e565b6003820160006104e7919061078e565b50506000808154809291906104fb90610d3b565b91905055507f81b2a9e8b52a6e908e21c7135e37e7d6332a8360263c7805feb68fcf1e2b394a8160405161052f9190610b19565b60405180910390a150565b60005481565b600160205280600052604060002060009150905080600001549080600101805461056990610c45565b80601f016020809104026020016040519081016040528092919081815260200182805461059590610c45565b80156105e25780601f106105b7576101008083540402835291602001916105e2565b820191906000526020600020905b8154815290600101906020018083116105c557829003601f168201915b5050505050908060020180546105f790610c45565b80601f016020809104026020016040519081016040528092919081815260200182805461062390610c45565b80156106705780601f1061064557610100808354040283529160200191610670565b820191906000526020600020905b81548152906001019060200180831161065357829003601f168201915b50505050509080600301805461068590610c45565b80601f01602080910402602001604051908101604052809291908181526020018280546106b190610c45565b80156106fe5780601f106106d3576101008083540402835291602001916106fe565b820191906000526020600020905b8154815290600101906020018083116106e157829003601f168201915b5050505050905084565b82805461071490610c45565b90600052602060002090601f016020900481019282610736576000855561077d565b82601f1061074f57805160ff191683800117855561077d565b8280016001018555821561077d579182015b8281111561077c578251825591602001919060010190610761565b5b50905061078a91906107ce565b5090565b50805461079a90610c45565b6000825580601f106107ac57506107cb565b601f0160209004906000526020600020908101906107ca91906107ce565b5b50565b5b808211156107e75760008160009055506001016107cf565b5090565b6000604051905090565b600080fd5b600080fd5b6000819050919050565b610812816107ff565b811461081d57600080fd5b50565b60008135905061082f81610809565b92915050565b600080fd5b600080fd5b6000601f19601f8301169050919050565b7f4e487b7100000000000000000000000000000000000000000000000000000000600052604160045260246000fd5b6108888261083f565b810181811067ffffffffffffffff821117156108a7576108a6610850565b5b80604052505050565b60006108ba6107eb565b90506108c6828261087f565b919050565b600067ffffffffffffffff8211156108e6576108e5610850565b5b6108ef8261083f565b9050602081019050919050565b82818337600083830152505050565b600061091e610919846108cb565b6108b0565b90508281526020810184848401111561093a5761093961083a565b5b6109458482856108fc565b509392505050565b600082601f83011261096257610961610835565b5b813561097284826020860161090b565b91505092915050565b60008060008060808587031215610995576109946107f5565b5b60006109a387828801610820565b945050602085013567ffffffffffffffff8111156109c4576109c36107fa565b5b6109d08782880161094d565b935050604085013567ffffffffffffffff8111156109f1576109f06107fa565b5b6109fd8782880161094d565b925050606085013567ffffffffffffffff811115610a1e57610a1d6107fa565b5b610a2a8782880161094d565b91505092959194509250565b600080600060608486031215610a4f57610a4e6107f5565b5b600084013567ffffffffffffffff811115610a6d57610a6c6107fa565b5b610a798682870161094d565b935050602084013567ffffffffffffffff811115610a9a57610a996107fa565b5b610aa68682870161094d565b925050604084013567ffffffffffffffff811115610ac757610ac66107fa565b5b610ad38682870161094d565b9150509250925092565b600060208284031215610af357610af26107f5565b5b6000610b0184828501610820565b91505092915050565b610b13816107ff565b82525050565b6000602082019050610b2e6000830184610b0a565b92915050565b600081519050919050565b600082825260208201905092915050565b60005b83811015610b6e578082015181840152602081019050610b53565b83811115610b7d576000848401525b50505050565b6000610b8e82610b34565b610b988185610b3f565b9350610ba8818560208601610b50565b610bb18161083f565b840191505092915050565b6000608082019050610bd16000830187610b0a565b8181036020830152610be38186610b83565b90508181036040830152610bf78185610b83565b90508181036060830152610c0b8184610b83565b905095945050505050565b7f4e487b7100000000000000000000000000000000000000000000000000000000600052602260045260246000fd5b60006002820490506001821680610c5d57607f821691505b60208210811415610c7157610c70610c16565b5b50919050565b60006060820190508181036000830152610c918186610b83565b90508181036020830152610ca58185610b83565b90508181036040830152610cb98184610b83565b9050949350505050565b7f4e487b7100000000000000000000000000000000000000000000000000000000600052601160045260246000fd5b6000610cfd826107ff565b91507fffffffffffffffffffffffffffffffffffffffffffffffffffffffffffffffff821415610d3057610d2f610cc3565b5b600182019050919050565b6000610d46826107ff565b91506000821415610d5a57610d59610cc3565b5b60018203905091905056fea2646970667358221220d0252c55b32d927a0ad2909452a04da937296c804d95242b0f9b3dbb32aab9fe64736f6c634300080b0033",
  "immutableReferences": {},
  "source": "// SPDX-License-Identifier: MIT\npragma solidity ^0.8.0;\n\ncontract Contacts{\n   uint public totalContacts=0;\n   mapping(uint=>Contact) public contacts;\n\n   struct Contact{\n        uint id;\n        string contactName;\n        string phoneNumber;\n        string description;\n   }\n\n   event ContactCreated(string contactName,string contactPhone,string desc);\n   event EditContact(uint id);\n\n   function createContact(string memory contactName,string memory contactPhone,string memory desc)public{\n       totalContacts++;\n       Contact storage c=contacts[totalContacts];\n       c.id=totalContacts;\n       c.contactName=contactName;\n       c.phoneNumber=contactPhone;\n       c.description=desc;\n       emit ContactCreated(contactName, contactPhone, desc);\n   }\n\n   function editContact(uint contactId,string memory contactName,string memory contactPhone,string memory desc)public{\n       Contact memory c=contacts[contactId];\n       c.contactName=contactName;\n       c.phoneNumber=contactPhone;\n       c.description=desc;\n       contacts[contactId]=c;\n       emit ContactCreated(contactName, contactPhone, desc);\n   }\n\n   function deleteContact(uint id)public{\n       delete contacts[id];\n       totalContacts--;\n       emit EditContact(id);\n   }\n}\n\n",
  "sourcePath": "/Users/samiullah/Documents/ethereum/contacts_global/contracts/Contact.sol",
  "compiler": {
    "name": "solc",
    "version": "0.8.11+commit.d7f03943.Emscripten.clang"
  },
  "schemaVersion": "3.4.4",
  "updatedAt": "2022-02-13T10:39:58.700Z",
  "networkType": "ethereum",
  "devdoc": {
    "kind": "dev",
    "methods": {},
    "version": 1
  },
  "userdoc": {
    "kind": "user",
    "methods": {},
    "version": 1
  }
}